S0120000427574746F6E5F494E542E737265634C
S113000045C000004BC0000049C0000047C00000CC
S113001045C0000044C0000041C000003FC00000D3
S11300203DC000003BC0000039C0000037C00000E4
S113003035C0000033C0000031C000002FC00000F4
S11300402DC000002BC0000029C0000027C0000004
S113005025C0000023C0000021C000001FC0000014
S11300601DC000001BC0000019C0000017C0000024
S113007015C0000013C0000011C000000FC0000034
S11300800DC000000BC0000009C0000011241FBEF9
S1130090CFEFD0E1DEBFCDBF2FD03AC0B1CF1F929A
S11300A00F920FB60F9211242F933F934F938F9378
S11300B09F9380E090E013C021E030E0082E02C05E
S11300C0220F331F0A94E2F722BB2FEF31EE44E0F4
S11300D0215030404040E1F700C0000001968830D4
S11300E0910554F39F918F914F913F912F910F90D0
S11300F00FBE0F901F9018958FEF81BB82B18F7E3A
S113010082B9789482E08ABF80E189BF12BAFECFB7
S1070110F894FFCF8D
S9030000FC
