S00C0000554152542E73726563DC
S113000045C000004BC0000049C0000047C00000CC
S113001045C0000043C0000041C000003FC00000D4
S11300203DC000003BC0000039C0000037C00000E4
S113003035C0000033C0000031C000002FC00000F4
S11300402DC000002BC0000029C0000027C0000004
S113005025C0000023C0000021C000001FC0000014
S11300601DC000001BC0000019C0000017C0000024
S113007015C0000013C0000011C000000FC0000034
S11300800DC000000BC0000009C0000011241FBEF9
S1130090CFEFD0E1DEBFCDBF02D036C0B1CF10D09C
S11300A08FEF81BB24D0C82F813621F425D08C2F2B
S11300B01AD0F8CF8236B1F723D08C2F14D0F2CFD8
S11300C0109290008FEC89B98BB182608BB9E5E90D
S11300D0F0E08081866080838AB180618AB98AB1C8
S11300E088608AB908955D9BFECF8CB908955F9BA3
S11300F0FECF8CB190E0089582B3816082BB0895F5
S10F010082B38E7F82BB0895F894FFCF79
S9030000FC
