S0100000427574746F6E5F322E7372656307
S113000045C000004BC0000049C0000047C00000CC
S113001045C0000043C0000041C000003FC00000D4
S11300203DC000003BC0000039C0000037C00000E4
S113003035C0000033C0000031C000002FC00000F4
S11300402DC000002BC0000029C0000027C0000004
S113005025C0000023C0000021C000001FC0000014
S11300601DC000001BC0000019C0000017C0000024
S113007015C0000013C0000011C000000FC0000034
S11300800DC000000BC0000009C0000011241FBEF9
S1130090CFEFD0E1DEBFCDBF53D08CC0B1CFCF9373
S11300A0DF931F92CDB7DEB7FC0129837183608390
S11300B0538342833981348381E08583FB0120812A
S11300C081E090E002C0880F991F3A95E2F780958D
S11300D0822380830F90DF91CF910895FC01A28148
S11300E0B3818C9121E030E0048002C0220F331FE1
S11300F00A94E2F7282371F48581813059F42FEFB3
S113010030E792E0215030409040E1F700C0000019
S113011015820895222381F0858181110FC02FEF6C
S113012030E782E0215030408040E1F700C0000019
S113013081E0858382E0089580E0089580E0089559
S1130140CF93DF93CDB7DEB762970FB6F894DEBFD7
S11301500FBECDBF8FEF81BB24E041E250E062E2ED
S113016070E0CE0101969BDF26E041E250E062E2BE
S113017070E0CE01079693DF27E041E250E062E2AF
S113018070E0CE010D968BDFCE010196A7DF8230A1
S113019011F48FEF82BBCE010796A0DF823009F401
S11301A012BACE010D969ADF823071F782B3809530
S10B01B082BBEACFF894FFCFF3
S9030000FC
